:100000000C945C000C9479000C9479000C947900A9
:100010000C9479000C9479000C9479000C9479007C
:100020000C9479000C9479000C9479000C9479006C
:100030000C9479000C9479000C9479000C9479005C
:100040000C948B010C9479000C9479000C94790039
:100050000C9479000C9479000C9479000C9479003C
:100060000C9479000C947900000000002400270013
:100070002A0000000000250028002B0004040404CE
:100080000404040402020202020203030303030342
:10009000010204081020408001020408102001021F
:1000A00004081020000000080002010000030407FB
:1000B000000000000000000011241FBECFEFD8E0B8
:1000C000DEBFCDBF11E0A0E0B1E0ECEBF5E002C097
:1000D00005900D92A030B107D9F721E0A0E0B1E082
:1000E00001C01D92AD30B207E1F70E94D5010C941A
:1000F000DC020C940000E7EAF0E02491E3E9F0E090
:100100009491EFE7F0E0E491EE23C9F0222339F077
:10011000233001F1A8F4213019F1223029F1F0E067
:10012000EE0FFF1FEE58FF4FA591B4912FB7F89433
:10013000EC91811126C090959E239C932FBF08952A
:100140002730A9F02830C9F0243049F720918000E9
:100150002F7D03C0209180002F7720938000DFCF78
:1001600024B52F7724BDDBCF24B52F7DFBCF209185
:10017000B0002F772093B000D2CF2091B0002F7D18
:10018000F9CF9E2BDACFE3E9F0E02491EFE7F0E03E
:100190008491882399F090E0880F991FFC01E85919
:1001A000FF4FA591B491FC01EE58FF4F85919491BA
:1001B0008FB7F894EC91E22BEC938FBF0895CF9317
:1001C000DF93EC010E94C300209729F480E0DF91C7
:1001D000CF910C947B00CF3FD10511F481E0F7CF94
:1001E000E7EAF0E0E491E33029F140F4E130B1F0E6
:1001F000E230D9F0C038D1058CF7E8CFE73021F1F3
:10020000E83051F1E430B1F7809180008062809352
:100210008000D0938B00C0938A0004C084B58068AE
:1002200084BDC7BDDF91CF91089584B5806284BD40
:10023000C8BDF8CF80918000806880938000D09303
:100240008900C0938800EECF8091B00080688093D1
:10025000B000C093B300E6CF8091B000806280937D
:10026000B000C093B400DECF3FB7F8948091050191
:1002700090910601A0910701B091080126B5A89BB5
:1002800005C02F3F19F00196A11DB11D3FBFBA2F28
:10029000A92F982F8827BC01CD01620F711D811DE8
:1002A000911D42E0660F771F881F991F4A95D1F76D
:1002B00008958F929F92AF92BF92CF92DF92EF926A
:1002C000FF924B015C010E9434016B017C010E9492
:1002D00034016C197D098E099F09683E73408105C0
:1002E0009105A8F321E0821A9108A108B10888EECF
:1002F000C80E83E0D81EE11CF11C81149104A104F6
:10030000B10429F7FF90EF90DF90CF90BF90AF90AE
:100310009F908F9008951F920F920FB60F92112405
:100320002F933F938F939F93AF93BF93809101013E
:1003300090910201A0910301B0910401309100015C
:1003400023E0230F2D3758F50196A11DB11D2093F1
:1003500000018093010190930201A0930301B093E7
:1003600004018091050190910601A0910701B091CF
:1003700008010196A11DB11D80930501909306010E
:10038000A0930701B0930801BF91AF919F918F9106
:100390003F912F910F900FBE0F901F90189526E858
:1003A000230F0296A11DB11DD2CF789484B582602F
:1003B00084BD84B5816084BD85B5826085BD85B509
:1003C000816085BD80916E00816080936E00109287
:1003D0008100809181008260809381008091810002
:1003E0008160809381008091800081608093800093
:1003F0008091B10084608093B1008091B0008160F1
:100400008093B00080917A00846080937A0080911C
:100410007A00826080937A0080917A008160809374
:100420007A0080917A00806880937A001092C100EF
:100430000E94C30090E080E00E94DF00C0910901AB
:10044000D0910A01CF3FD10509F00CF447C080E4F8
:10045000B82ECC24CA9493E0D92EE12CF12CC0E024
:10046000D0E0B0927C0080917A00806480937A0022
:1004700080917A0086FDFCCF8091780020917900F0
:10048000322F282FAFEFB0E00E94CD02A7019601D6
:100490000E948C02890130930C0120930B01C90149
:1004A0000E94DF000F3F1105A0F090E080E00E9465
:1004B000DF0066E970E080E090E00E9459018FEF74
:1004C00090E00E94DF0064E670E080E090E00E942F
:1004D0005901209731F20E940000C3CF2A96D09391
:1004E0000A01C0930901CE010E94DF006CE170E0B7
:1004F00080E090E00E945901CF3FD10509F00CF453
:100500009DCF8FEF90E00E94DF0068EE73E080E007
:1005100090E00E9459018ECF052E97FB1EF40094A7
:100520000E94A30257FD07D00E94AB0207FC03D034
:100530004EF40C94A30250954095309521953F4F71
:100540004F4F5F4F089590958095709561957F4FBF
:100550008F4F9F4F0895A1E21A2EAA1BBB1BFD01CE
:100560000DC0AA1FBB1FEE1FFF1FA217B307E40792
:10057000F50720F0A21BB30BE40BF50B661F771FEA
:10058000881F991F1A9469F76095709580959095CA
:100590009B01AC01BD01CF010895A29FB001B39FA3
:1005A000C001A39F700D811D1124911DB29F700D7C
:0C05B000811D1124911D0895F894FFCFC7
:00000001FF
